:020000040800F2
:10000000782E002055310008691E0008751E000872
:100010007B1E0008811E0008871E000800000000EB
:100020000000000000000000000000008D1E00081D
:10003000991E000800000000FD01000807320008BA
:100040009931000899310008993100089931000868
:100050009931000899310008993100089931000858
:100060009931000899310008993100089931000848
:100070009931000899310008993100089931000838
:100080009931000899310008993100089931000828
:100090009931000899310008993100089931000818
:1000A0009931000899310008993100089931000808
:1000B00099310008993100089931000899310008F8
:1000C00099310008993100089931000899310008E8
:1000D00099310008993100089931000899310008D8
:1000E00099310008993100089931000899310008C8
:1000F00099310008993100089931000899310008B8
:1001000099310008993100089931000899310008A7
:100110009931000899310008993100089931000897
:100120009931000899310008993100089931000887
:1001300000000000000000000000000000000000BF
:1001400000000000000000000000000000000000AF
:10015000000000000000000000000000000000009F
:10016000000000000000000000000000000000008F
:10017000000000000000000000000000000000007F
:10018000000000000000000000000000000000006F
:10019000000000000000000000000000000000005F
:1001A000000000000000000000000000000000004F
:1001B000000000000000000000000000000000003F
:1001C000000000000000000000000000000000002F
:1001D000000000000000000000000000000000001F
:0401E0005FF8E0F1F3
:1001E400EFF3108072B6704780F3108870470C48A4
:1001F4004FF0805101607047EFF3098020B120E98E
:10020400F00F084909680860064807490A6802604F
:100214001068B0E8F00F80F309884EF0040E7047C0
:1002240004ED00E0640500206805002080B483B07C
:1002340000AF78607A687B685A607A687B681A6075
:100244007B6800229A6000BF0C37BD4680BC7047B3
:1002540080B483B000AF78607B687A685A607B684A
:100264007A681A6000BF0C37BD4680BC704780B402
:1002740083B000AF78607B689B6818460C37BD4636
:1002840080BC704780B485B000AF78600023FB6009
:100294007B689B68002B02D07B685B68FB60FB6813
:1002A40018461437BD4680BC704780B483B000AF95
:1002B400786039603B681B683A6852685A603B68EA
:1002C4005B683A6812681A607B689B685A1E7B6890
:1002D4009A6000BF0C37BD4680BC704780B483B0C1
:1002E40000AF786039607A683B685A607B681A6846
:1002F4003B681A607B681B683A685A607B683A6896
:100304001A607B689B685A1C7B689A6000BF0C3734
:10031400BD4680BC704780B485B000AF78600023D0
:10032400FB607B689B68002B0FD07B685B68FB607D
:10033400FB685B687A681A60FB685A687B685A6075
:100344007B689B685A1E7B689A60FB681846143762
:10035400BD4680BC7047000080B584B004AF4FF444
:1003640080630293074B01931F2300930023064AE3
:100374000649074800F098F8064B044A1A6000BF83
:10038400BD4680BD600100209D03000824010020BB
:10039400AC3500082001002080B483B000AF786041
:1003A400FEE7000080B500AF02F022FF01F0E4FA9E
:1003B40001F0F0FC0C4800F085FE00F049F800F074
:1003C4001BF8FFF7C9FF01F037F800F061F903F0FB
:1003D400ABF8064B1B681946054800F0DFFE0548DC
:1003E40000F0DCFEFEE700BFB83500086005002021
:1003F400C0350008C835000880B400AF034B0022A4
:100404001A6000BFBD4680BC704700BF6005002075
:1004140080B582B000AFFFF7E3FE786000F08CF89F
:10042400064B1B680133054A13607868FFF7DCFE4E
:1004340000F0E8F800BF0837BD4680BD6005002025
:1004440080B485B000AF78607B68103BFB60FEE74A
:1004540080B582B000AF104B00221A700F4800F034
:10046400D6F90F48FFF7E2FE00237B600CE07A68C0
:1004740013465B0013449B000A4A13441846FFF7D3
:10048400D5FE7B6801337B607B681F2BEFDD00BFEB
:1004940000BF0837BD4680BD700500206C050020F4
:1004A400F40600207405002080B588B004AFF8601D
:1004B400B9607A603B60002303933B6A0293FB6953
:1004C40001933B7E00933B687A68B968F86800F052
:1004D40017FAB86800F0F6F800BF1037BD4680BDC3
:1004E40080B500AF00F00AF80346034A136000F039
:1004F400B5F800BF80BD00BF6805002080B584B09A
:1005040000AF0B4800F0B6F9F860FA6813465B00D8
:1005140013449B00074A13441846FFF7B3FEB86020
:10052400BB681C3B7B607B6818461037BD4680BDAA
:100534006C0500207405002080B584B000AF2E4BFC
:100544005B68FB6013E0FB685B68BB60FB681C3B9B
:100554007B607B685B6A5A1E7B685A627B685B6A55
:10056400002B02D1786800F031F9BB68FB60FB68AE
:10057400214A9342E7D1214B1B681A6B013A1A6353
:100584001B6B002B34D11D4B1B6893F82C301A467F
:1005940013465B0013449B00194A13441846FFF7A3
:1005A40066FE0346002B23D0144B1B6893F82C30B3
:1005B4001A4613465B0013449B00114A1344184621
:1005C400FFF7A9FE0D4B1B6893F82C301A4613460F
:1005D4005B0013449B000A4A1A44084B1B681C33F3
:1005E40019461046FFF77AFE044B1B680A221A6369
:1005F40000BF1037BD4680BDF4060020640500200E
:100604007405002080B582B000AFFFF7E9FD786083
:100614000F4B1B78002B03D07868FFF7E5FD14E03F
:10062400FFF76CFF38600B4B1B683A689A4209D09D
:10063400094A3B681360084B1B689A6B01329A6342
:10064400FFF7D5FD7868FFF7CFFD0837BD4680BDBD
:1006540070050020640500206805002080B582B084
:1006640000AFFFF7BDFD7860084B1B78002B05D069
:10067400064B1B78013BDAB2044B1A707868FFF71B
:10068400B3FD00BF0837BD4680BD00BF7005002024
:1006940080B582B000AFFFF7A3FD7860084B1B78EC
:1006A400FF2B05D0064B1B780133DAB2044B1A70CA
:1006B4007868FFF799FD00BF0837BD4680BD00BFCD
:1006C4007005002080B582B000AF78607B6893F835
:1006D4002C301A4613465B0013449B00094A1A4403
:1006E4007B681C3319461046FFF7F8FD7B6893F8C6
:1006F4002C301946044800F096F800BF0837BD4670
:1007040080BD00BF740500206C05002080B582B058
:1007140000AF78607B6893F82C301A4613465B0070
:1007240013449B00114A1A447B681C331946104633
:10073400FFF7BBFD7B6893F82C301A4613465B0029
:1007440013449B00094A13441846FFF790FD0346DF
:10075400002B06D17B6893F82C301946044800F02E
:1007640075F800BF0837BD4680BD00BF7405002082
:100774006C05002080B584B000AF7860FFF730FDD1
:10078400F860104B1B687A685A620E4B1B68184657
:10079400FFF7BCFF0B4B1B681C3319460A48FFF7D5
:1007A4009DFD084B1B689A6A064B1B6842F00402C5
:1007B4009A62F868FFF718FDFFF724FF00BF1037AF
:1007C400BD4680BD64050020F406002080B582B0DB
:1007D40000AF78607B681C3319460848FFF765FD55
:1007E4007B689B6A23F004027B689A627868FFF74F
:1007F40069FF00BF0837BD4680BD00BFF406002076
:1008040080B400AF20231846BD4680BC704780B436
:1008140083B000AF78607B6800221A6000BF0C3799
:10082400BD4680BC704780B483B000AF7860396047
:100834007B681B6801213A6801FA02F21A437B685B
:100844001A6000BF0C37BD4680BC704780B483B0CB
:1008540000AF786039607B681B6801213A6801FA4F
:1008640002F2D2431A407B681A6000BF0C37BD46BF
:1008740080BC704780B582B000AF78607B681B682D
:10088400DBB2002B05D07B681B68DBB2194AD35C52
:100894002BE07B681B6803F47F43002B07D07B6845
:1008A4001B681B0ADBB2134AD35C08331DE07B6868
:1008B4001B6803F47F03002B07D07B681B681B0CA9
:1008C400DBB20C4AD35C10330FE07B681B6803F087
:1008D4007F43002B06D07B681B681B0E054AD35C44
:1008E400183302E0FFF78CFF034618460837BD466D
:1008F40080BD00BFF03D000880B400AFFEE70000FB
:1009040080B584B000AFF860B9607A603B60BB68C2
:10091400FA685A607B6ADAB2BB681A723A6A0021D2
:10092400F86900F0D1FA3B6A043BFA691A44184B9F
:100934003968786802F090FC0246BB681A60BB68AC
:100944007A68DA60BB683A681A61BB68FA695A6106
:10095400BB683A6A9A61BB681C331846FFF778FC97
:10096400BB6800225A62BB6800229A62BB683A7E66
:1009740083F82C20BB680A221A63BB6800225A63DE
:10098400BB6800229A6300BF1037BD4680BD00BF1C
:10099400FD08000880B584B000AF786039603B681A
:1009A400002B0CD10B4B1B6819460B4800F0F6FBCF
:1009B4000A4B18220A490B4800F0F0FBFEE700231B
:1009C400FB737B681A683B681A60FB7B1846103718
:1009D400BD4680BD60050020FC35000804360008D3
:1009E400083600085836000880B485B000AF786037
:1009F40039600023FB737B683A681A60FB7B1846F6
:100A04001437BD4680BC704780B58AB000AF7860AB
:100A14007B68002B0CD1234B1B681946224800F03D
:100A2400BDFB224B2D222249224800F0B7FBFEE7F2
:100A34007B687B6200233B627B6A5B8B002B03D168
:100A44001D4800F0ABFB20E07B6A5A6807F11C03E9
:100A54001146184600F036F93862FB691A4607F168
:100A6400180319461046FFF795FF03463B623B6A9D
:100A7400002B03D0114800F091FB06E0BA6907F19E
:100A84000C031146184600F0B3F97B6A5B6807F162
:100A94000C0219460A4800F081FB00231846283747
:100AA400BD4680BD60050020FC3500087436000892
:100AB4000836000858360008783600089C360008C6
:100AC400B836000880B586B000AF78607B68002B2C
:100AD4000CD1214B1B681946204800F05FFB204BCA
:100AE40055222049204800F059FBFEE77B687B61D2
:100AF40000233B617B695B8B002B03D11B4800F017
:100B04004DFB20E07B695A6807F10C031146184637
:100B140000F0D8F838617B699A6807F10803114638
:100B2400184600F0CFF83861FB681A46BB681946CE
:100B34001046FFF759FF03463B613B69002B02D087
:100B44000B4800F02BFB0B4800F028FB0023184651
:100B54001837BD4680BD00BF60050020FC35000885
:100B6400743600080836000858360008DC360008D9
:100B74000C3700082C37000880B584B000AF7860CB
:100B840039600023FB607B68002B02D03B68002B9C
:100B940009D1134800F002FB1CE07B6801337B6041
:100BA4003B6801333B607B681A783B681B789A4248
:100BB40003D17B681B78002BEFD17B681B78002B5B
:100BC40006D13B681B78002B02D10023FB6001E0B7
:100BD4000123FB60FB6818461037BD4680BD00BF8B
:100BE4005837000880B586B000AF786039607B68FC
:100BF400002B0CD12D4B1B6819462D4800F0CEFA62
:100C04002C4B4C222C492D4800F0C8FAFEE73B68D7
:100C1400002B0CD1254B1B681946254800F0BEFA61
:100C2400274B4D222449254800F0B8FAFEE700235B
:100C34007B6100233B613B681B78FB733B681B783B
:100C44002D2B03D03B681B782B2B1CD13B68013325
:100C54003B6018E03B681B782F2B03D93B681B785B
:100C6400392B02D901237B6111E03A6913469B00B9
:100C740013445B001A463B681B78303B13443B61CA
:100C84003B6801333B603B681B78002BE2D1FB7B64
:100C94002D2B02D13B695B423B617B683A691A6048
:100CA4007B6918461837BD4680BD00BF600500202B
:100CB400843700081C3800089C370008F437000803
:100CC4002438000880B584B000AF786039607B6850
:100CD400002B0CD1404B1B681946404800F05EFACB
:100CE4003F4B99223F49404800F058FAFEE73B68E1
:100CF400002B0CD1384B1B681946384800F04EFACB
:100D04003A4B9A223749384800F048FAFEE7002364
:100D1400FB600023BB603B681B78302B09D13B6828
:100D240001331B78782B07D03B6801331B78582B91
:100D340002D00123FB6043E03B6802333B603BE0AD
:100D44003B681B782F2B0ED93B681B78392B0AD8AC
:100D5400BB681B013A6812781344303BBB603B68A4
:100D640001333B6028E03B681B78402B0ED93B687D
:100D74001B78462B0AD8BB681B013A6812781344C7
:100D8400373BBB603B6801333B6015E03B681B7835
:100D9400602B0ED93B681B78662B0AD8BB681B01F5
:100DA4003A6812781344573BBB603B6801333B609D
:100DB40002E00123FB6003E03B681B78002BBFD1FA
:100DC400FB68002B02D17B68BA681A60FB6818467E
:100DD4001037BD4680BD00BF600500208437000881
:100DE4001C3800089C370008F43700082438000831
:100DF40080B586B000AF786039607B68002B0CD179
:100E04002C4B1B6819462C4800F0C8F92B4BD622F2
:100E14002B492C4800F0C2F9FEE700233B61002374
:100E2400FB737B6802337B617B685A1C7A603022D7
:100E34001A707B685A1C7A6078221A7018E03B6832
:100E4400DBB203F00F03FB733B681B093B60FB7BC6
:100E5400092B05D8FB7B3033DAB27B681A7004E0C7
:100E6400FB7B3733DAB27B681A707B6801337B60B3
:100E74003B68002BE3D17B685A1E7A6000221A700B
:100E84000FE07B691B78FB737B681A787B691A70A7
:100E94007B68FA7B1A707B6901337B617B68013B59
:100EA4007B607A697B689A42EBD33B6918461837B2
:100EB400BD4680BD60050020843700081C3800084A
:100EC4009C370008F437000880B489B000AFF8609C
:100ED4000B467A60FB72FB68BB617B68032B3FD9CE
:100EE400FB6803F00303002B3AD1FB68FB61FB7A38
:100EF4001A02FB7A13437B617B691B047A691343EF
:100F04007B6116E0FB691A1DFA617A691A60FB6954
:100F14001A1DFA617A691A60FB691A1DFA617A6905
:100F24001A60FB691A1DFA617A691A607B68103BC2
:100F34007B607B680F2BE5D807E0FB691A1DFA611B
:100F44007A691A607B68043B7B607B68032BF4D866
:100F5400FB69BB6104E0BB695A1CBA61FA7A1A7076
:100F64007B685A1E7A60002BF5D1FB68184624373B
:100F7400BD4680BC704780B584B000AF7860002364
:100F8400FB607B68002B0AD10123FB600BE07B68CC
:100F94001B78184600F0EEF87B6801337B607B68B1
:100FA4001B78002BF3D1FB6818461037BD4680BD73
:100FB40080B584B000AF0346FB710023FB600D20B5
:100FC40000F0D8F80A2000F0D5F8FB79002B02D005
:100FD400FB79012B05D9094B1B681846FFF7CBFF9A
:100FE40006E0FB79054A52F823301846FFF7C3FFA1
:100FF400FB6818461037BD4680BD00BF00000020C6
:1010040080B588B000AF786039600023BB610023ED
:10101400FB6007F1100300221A609A800023FB771B
:101024007B68002B05DA2D2000F0A4F87B685B4276
:101034007B607A68224B83FB02139910D317C91A79
:101044000B469B000B445B00D11AFB7F5A1CFA77BA
:10105400CAB207F120010B4403F8142C7B68184A28
:1010640082FB03129210DB17D31A7B607B68002B80
:1010740002D0FB7F092BDCD9FB7F3A68D31A013BF2
:101084003B6002E0202000F075F83B68002BF9DC9F
:101094000DE0FB7F013BFB77FB7F07F1200213444C
:1010A40013F8143C3033DBB2184600F063F8FB7FCE
:1010B400002BEED1BB6918462037BD4680BD00BF6A
:1010C4006766666680B584B000AF78600023FB7302
:1010D400786800F05BFC0346164A1360154B1B68E6
:1010E400002B0CD1144B1B681946144800F056F819
:1010F400134BBD221349144800F050F8FEE70D4B82
:101104001B68002B06D00B4B1B68184600F0ACFC88
:101114000346FB73FB7B002B07D1064B1B680321A3
:10112400184600F0C9FC0346FB73FB7B18461037D6
:10113400BD4680BD00070020600500207C38000803
:101144008438000898380008F038000880B582B068
:1011540000AF0023FB71064B1868FA1D0123002120
:1011640000F002FDFB7918460837BD4680BD00BF7C
:101174000007002080B582B000AF0346FB71064B28
:101184001868FA1D0123002100F010FDFB791846B0
:101194000837BD4680BD00BF000700200FB480B5EE
:1011A40086B000AF00237B6100233B6100237B609A
:1011B40000233B7200233B603B6A002B03D10123D5
:1011C4007B617B696BE007F12403FB603B6A3B6155
:1011D4005EE03B691B78252B08D03B691B781846D9
:1011E400FFF7C8FF3B6901333B6151E03B690133C1
:1011F4003B613B691B782F2B10D93B691B78392B3A
:101204000CD83B685A1C3A603A69127807F1180105
:101214000B4403F8142C3B6901333B613B68002BFE
:101224000CDD3B6807F118021344002203F8142C68
:101234003A1D3B4611461846FFF7D4FC3B691B7820
:10124400642B02D0732B0FD019E03B6901333B614F
:10125400FB681A1DFA601B683A6811461846FFF7C6
:10126400CFFE00233B6010E03B6901333B61FB6828
:101274001A1DFA601B681846FFF77DFE05E0012081
:10128400FFF796FE01237B6100BF7B69012B04D02D
:101294003B691B78002B9CD100E000BF7B6918469A
:1012A4001837BD46BDE8804004B0704780B582B0B1
:1012B40000AF78607B681B8B002B0DD00848FFF7CC
:1012C4006DFF7B681A687B681B8B591E88B279682E
:1012D4000883134400221A7000BF0837BD4680BD3E
:1012E4000C39000880B582B000AF78600F48FFF772
:1012F40055FF7B681B687A68128B134400221A70AE
:101304007B681B8B002B09D0786800F0C1FA7B68DE
:101314001B6800221A707B6800221A830448FFF7B6
:101324003DFF00BF0837BD4680BD00BF1C39000823
:101334002039000880B584B000AF78600023FB73C7
:101344000E4BBB6010E0BB681B78002B09D1F97B06
:10135400BB685B681A460A48FFF720FFFB7B013332
:10136400FB73BB681433BB60BB68064A9342EAD183
:10137400002318461037BD4680BD00BF8000002002
:10138400303900082001002080B584B000AF7860B7
:101394007B68002B0CD11A4B1B6819461948FFF7C0
:1013A400FDFE194B7D2219491948FFF7F7FEFEE7A8
:1013B4000023FB737B68BB60BB685B8B002B03D192
:1013C4001448FFF7EBFE15E00023FB730CE0F97BF8
:1013D400FB7BBA689B0013445B681A460E48FFF710
:1013E400DDFEFB7B0133FB73FB7B9AB2BB685B8B3B
:1013F4009A42ECD3002318461037BD4680BD00BF87
:1014040060050020543900085C3900086039000880
:10141400BC390008D8390008F039000880B582B01A
:1014240000AF78600348FFF7B9FE00231846083779
:10143400BD4680BD183A000880B586B004AF0023CD
:101444007B60174B174A1A60154B4FF400729A8051
:101454001349154800F03AF878607B68002B0AD0ED
:10146400124B1B6819461248FFF798FE34211148A5
:10147400FFF794FEFEE74FF4805302930E4B019363
:101484001E23009300230D4A0D490E48FFF70CF864
:101494000D48FFF783FE00BF0837BD4680BD00BF7F
:1014A40080170020881700204017002060050020C6
:1014B4003C3A0008443A0008400700208915000817
:1014C40004070020703A00087C3A000880B485B014
:1014D40000AF786039600023FB6000237B813B68A8
:1014E4001B68002B03D14FF0FF33FB603EE03B68E9
:1014F4001A687B681A603B689A887B689A837B6861
:1015040000221A627B68002283F824207B68002270
:101514001A837B6800225A8300237B8110E07B6856
:1015240019687B895A1C13469B019B1A5B007A89B4
:1015340019447B680A3243F822107B8901337B818A
:101544007B89012BEBD97B680B4A5A630B4A0A4B04
:10155400D31A5B101A460A4BA3FB02231B099AB247
:101564007B681A877B68012283F83C20FB68184655
:101574001437BD4680BC7047800000202001002045
:10158400CDCCCCCC80B584B000AF7860124BFB607E
:10159400FB68002B0CD1114B1B6819461048FFF750
:1015A400FDFD104B5A2210491048FFF7F7FDFEE7E6
:1015B4000F48FFF7F3FD0F48FFF7F0FDFFF7C6FDF7
:1015C4000346FB72FB7A002BF8D0FB7A1946F868C5
:1015D40000F012F8F2E700BF401700206005002079
:1015E400A83A0008B03A0008BC3A0008143B0008C6
:1015F400303B0008603C000880B586B000AF7860DE
:101604000B46FB70FB78002B0CD14E4B1B68194624
:101614004D48FFF7C3FD4D4B6E224D494D48FFF732
:10162400BDFDFEE70023FB7500233B617B681B6A5D
:1016340003F07F43002B04D11823FB7500233B6187
:101644001FE07B681B6A03F07F427B681B6A9A4237
:1016540005D11023FB754FF07F433B6111E07B689C
:101664001B6A1B0C1B047A68126A934204D1082378
:10167400FB75394B3B6104E00023FB756FF0FF03FE
:101684003B610023FB60354BFB603EE0FB681B784D
:10169400012B37D1FB689A683B691A407B681B6A47
:1016A4009A422FD1FB689B68FA7DFF2101FA02F26E
:1016B4001340F978FA7D01FA02F2934222D17B6851
:1016C4001B6AF978FA7D01FA02F21A437B681A62FE
:1016D4000023FB70FB7D002B09D0FB689B68FA7D1F
:1016E400083AFF2101FA02F21340002B0AD1FB68E9
:1016F400DB68002B03D0FB68DB68786898477B685D
:1017040000221A62FB681433FB60FB68144A93429C
:10171400BCD1FB78002B11D07B6800221A627B6855
:101724001A687B681B8B591C88B279680883134438
:10173400FA781A70FB781846FFF71CFD00BF1837BB
:10174400BD4680BD60050020A83A0008683C00083A
:10175400BC3A0008143B00080000FFFF8000002092
:101764002001002080B584B000AF78600023FB60C6
:101774000023BB600F4BBB6013E0BB681B78002BDE
:101784000CD1BB685A687B681B6819461046FFF782
:10179400F3F90346002B01D1BB68FB60BB6814332B
:1017A400BB60BB68044A9342E7D1FB681846103714
:1017B400BD4680BD800000202001002090B585B08A
:1017C40000AF78600023FB817B6800225A830023EA
:1017D400FB8108E0FB897A689B00134400225A606D
:1017E400FB890133FB81FB89042BF3D90023FB81A3
:1017F40002E0FB890133FB817B681A68FB8913448F
:101804001B78202BF5D137E07B681A68FB891344D9
:101814001B78202B2DD17B681A68FB890133134474
:101824001B78202B25D07B681A68FB89013313446D
:101834001B78002B1DD07B681A68FB891344002297
:101844001A707B685B8B042B0FD87B681968FB8943
:101854005A1C7B685B8B581C84B2786844830A44A6
:1018640079689B000B445A6003E005210748FFF7A1
:1018740095FCFB890133FB817B681B8BFA899A42B7
:10188400C2D300BF00BF1437BD4690BD703C0008F2
:1018940080B584B000AF78600023FB607868FFF700
:1018A4008DFF7868FFF75EFFF860FB68002B06D1B8
:1018B4007B681B6819460848FFF770FC07E0FB6863
:1018C400DB68002B03D0FB68DB687868984700BFAF
:1018D4001037BD4680BD00BF903C000880B483B083
:1018E40000AF0023FB710023BB7105E0FB790133DA
:1018F400FB71FB79082B07D0FB791E4A52F8233081
:10190400B3F1FF3FF2D000E000BFFB79082B06D112
:10191400FEE7BB790133BB71BB79202B0BD0FB797C
:10192400144A52F82330BA79012101FA02F2134021
:10193400002BEED100E000BFBB79202B00D1FEE7E5
:10194400FB790C4A52F82320BB79012101FA03F3F5
:101954001946FB790A43074941F82320FB795B01C7
:10196400DAB2BB791344DBB218460C37BD4680BCEF
:10197400704700BF9419002080B500AF0248FEF7FD
:1019840055FC00BF80BD00BF8819002080B586B01B
:1019940000AF786000237B6100233B61134B5B68DD
:1019A4003B613B695B68FB60104B5B683B6112E029
:1019B4003B69043B7B617B691B6819467868FFF7C8
:1019C400DBF80346002B0BD000237B61FB683B61F3
:1019D4003B695B68FB603B69044A9342E8D100E0E1
:1019E40000BF7B6918461837BD4680BD88190020A2
:1019F40080B586B000AFF860B9601346FB80002361
:101A0400FB75FB68002B02D10123FB7525E0B86848
:101A1400FFF7BCFF0346002B02D00123FB751CE03B
:101A2400FB68BA681A60FB6804331846FEF710FCBA
:101A3400FB68FA881A82FFF751FF03461A46FB68CF
:101A44005A75FEF7CDFB3861FB6804331946054827
:101A5400FEF744FC3869FEF7C7FBFB7D18461837D0
:101A6400BD4680BD8819002080B584B000AF786081
:101A74000023FB737B68002B03D07B681B6A002B5D
:101A840002D10123FB7312E07B68DB8903F00103BD
:101A9400002B0CD17B681B6A786898470346FB735C
:101AA400FB7B002B00D0FEE77B680122DA81FB7B05
:101AB40018461037BD4680BD80B584B000AF78604D
:101AC4000B467B800023FB737B68002B02D1012330
:101AD400FB7339E07868FFF7C7FF7B685B6A002B0C
:101AE40008D07B685B6A7A88114678689847034611
:101AF400FB7307E07B8823F0F0031B051B0D9AB2F0
:101B04007B685A82FB7B002B1ED17B68DB8943F008
:101B140008039AB27B68DA817B681B7D0133DAB2F1
:101B24007B681A757B681B7D002B0DD1094B1B68E4
:101B340019460948FFF732FB084B40F26312084983
:101B44000848FFF72BFBFEE7FB7B18461037BD4622
:101B540080BD00BF60050020B03C0008B83C000810
:101B6400CC3C0008243D000890B587B000AFF86075
:101B7400B9607A603B6000237B61FB68002B03D073
:101B8400FB681B7D002B00D1FEE7FB68DB6A002BA2
:101B940007D0FB68DC6A3B687A68B968F868A047D4
:101BA40078617B6918461C37BD4690BD90B587B0F7
:101BB40000AFF860B9607A603B6000237B61FB682A
:101BC400002B03D0FB681B7D002B02D101237B611A
:101BD4000BE0FB681B6B002B07D0FB681C6B3B689E
:101BE4007A68B968F868A04778617B6918461C3739
:101BF400BD4690BDF0B58BB004AF78600023FB60A8
:101C040000237B61254B1B6819462548FFF7C6FA5C
:101C14002448FEF72CFB034619462348FFF7BEFA77
:101C2400204B5B687B617B695B683B611D4B5B6838
:101C34007B6129E07B69043BFB60184B1B681946F8
:101C44001748FFF7ABFAFB685B7D1D46FB681A6813
:101C5400FB681B7B1E46FB68DB891946FB681B8AF5
:101C64001846FB685B8A1C46FB681B7D0393029441
:101C740001900091334629460C48FFF78FFA3B69DF
:101C84007B617B695B683B617B69064A9342D1D186
:101C9400002318461C37BD46F0BD00BF6005002078
:101CA400B03C000888190020403D0008543D00085D
:101CB40080B586B000AF78600023FB757B689B6BB2
:101CC4001B683B617B689B6B5B68FB60FB689B6884
:101CD4001A463B691A60FB68DA683B695A60FB681C
:101CE4001A693B699A60FB685A693B69DA60FB6868
:101CF4009A693B691A61FB68DA693B695A61FB6856
:101D04001A6A3B699A61386900F0EAFEFB7D18465D
:101D14001837BD4680BD80B586B000AFF860B960A5
:101D24007A603B60FB689B6B18683B689AB24FF41F
:101D34008053796800F0B3FF03467B617B691846E2
:101D44001837BD4680BD80B586B000AFF860B96075
:101D54007A603B60FB689B6B1B687B613B689AB253
:101D64004FF480537968786900F007FF03463B61BC
:101D74003B6918461837BD4680BD80B485B000AFB6
:101D8400F860B9607A60002318461437BD4680BCF9
:101D94007047000080B582B000AF0023FB710A4B8E
:101DA4001B68094A526892B219460848FFF720FE98
:101DB4000346FB71FB79002B00D0FEE7FB79184644
:101DC4000837BD4680BD00BF080000203800002051
:101DD40080B58AB000AF7860204B9B691F4A43F4FA
:101DE400804393611D4B9B6903F480437B617B6952
:101DF4001A4B9B69194A43F004039361174B9B697F
:101E040003F004033B613B69144B9B69134A43F0A1
:101E140004039361114B9B6903F00403FB60FB68AB
:101E24004FF40073BB610223FB6101233B62032374
:101E34007B6207F118031946094800F065F84FF46E
:101E44008063BB610023FB6107F118031946044852
:101E540000F05AF800BF2837BD4680BD001002408C
:101E64000008014080B400AF00BFBD4680BC70478D
:101E740080B400AFFEE780B400AFFEE780B400AFEB
:101E8400FEE780B400AFFEE780B400AF00BFBD46FC
:101E940080BC704780B400AF00BFBD4680BC7047B3
:101EA40080B400AF154B1B68144A43F00103136060
:101EB400124B5A681149124B13404B600F4B1B686D
:101EC4000E4A23F0847323F4803313600B4B1B6896
:101ED4000A4A23F480231360084B5B68074A23F4FF
:101EE400FE035360054B4FF41F029A60054B4FF0FD
:101EF40000629A6000BFBD4680BC7047001002407B
:101F04000000FFF800ED00E080B48BB000AF786013
:101F1400396000237B6200233B6269E101227B6A12
:101F240002FA03F3FB613B681B68FA691340BB6167
:101F3400BA69FB699A4240F058813B685B689A4AE7
:101F440093425ED0984A934275D8984A934258D0A7
:101F5400964A93426FD8964A934252D0944A9342F7
:101F640069D8944A93424CD0924A934263D8924A95
:101F7400934246D0904A93425DD8122B2AD8122B12
:101F840059D801A252F823F007200008E11F0008E5
:101F9400F31F0008352000083B2000083B20000800
:101FA4003B2000083B2000083B2000083B200008A1
:101FB4003B2000083B2000083B2000083B20000891
:101FC4003B2000083B2000083B200008E91F0008D4
:101FD400FD1F0008794A934213D02CE03B68DB686C
:101FE4003B6229E03B68DB6804333B6224E03B68E6
:101FF400DB6808333B621FE03B68DB680C333B6201
:102004001AE03B689B68002B02D104233B6213E077
:102014003B689B68012B05D108233B627B68FA6906
:102024001A6109E008233B627B68FA695A6103E09C
:1020340000233B6200E000BFBB69FF2B01D87B6833
:1020440001E07B6804337B61BB69FF2B02D87B6AA8
:102054009B0002E07B6A083B9B003B617B691A683A
:102064000F213B6901FA03F3DB431A40396A3B69E8
:1020740001FA03F31A437B691A603B685B6803F057
:102084008053002B00F0B1804D4B9B694C4A43F0C8
:10209400010393614A4B9B6903F00103BB60BB6876
:1020A400484A7B6A9B08023352F82330FB607B6A00
:1020B40003F003039B000F2202FA03F3DB43FA68E5
:1020C4001340FB607B68404A934213D07B683F4ACD
:1020D40093420DD07B683E4A934207D07B683D4AC9
:1020E400934201D1032306E0042304E0022302E027
:1020F400012300E000237A6A02F003029200934075
:10210400FA681343FB602F497B6A9B080233FA6821
:1021140041F823203B685B6803F48033002B06D02E
:102124002D4B1A682C49BB6913430B6006E02A4BFC
:102134001A68BB69DB43284913400B603B685B6842
:1021440003F40033002B06D0234B5A682249BB69A1
:1021540013434B6006E0204B5A68BB69DB431E49BE
:1021640013404B603B685B6803F48013002B06D07C
:10217400194B9A681849BB6913438B6006E0164BE8
:102184009A68BB69DB43144913408B603B685B6806
:1021940003F40013002B21D00F4BDA680E49BB69FE
:1021A4001343CB6021E000BF000032100000311067
:1021B4000000221000002110000012100000111075
:1021C400001002400000014000080140000C0140E2
:1021D4000010014000140140000401400B4BDA6878
:1021E400BB69DB4309491340CB607B6A01337B62E3
:1021F4003B681A687B6A22FA03F3002B7FF48EAEE5
:1022040000BF00BF2C37BD4680BC704700040140AE
:1022140080B586B000AF78607B68002B01D10123C4
:1022240072E27B681B6803F00103002B00F08780D7
:10223400924B5B6803F00C03042B0CD08F4B5B6850
:1022440003F00C03082B12D18C4B5B6803F480332E
:10225400B3F5803F0BD1894B1B6803F40033002B8B
:102264006CD07B685B68002B68D101234CE27B68EF
:102274005B68B3F5803F06D1804B1B687F4A43F40B
:10228400803313602EE07B685B68002B0CD17B4BA2
:102294001B687A4A23F480331360784B1B68774AAF
:1022A40023F4802313601DE07B685B68B3F5A02FE3
:1022B4000CD1724B1B68714A43F4802313606F4B3B
:1022C4001B686E4A43F4803313600BE06B4B1B684E
:1022D4006A4A23F480331360684B1B68674A23F40B
:1022E400802313607B685B68002B13D000F0EEFB47
:1022F400386108E000F0EAFB02463B69D31A642B1C
:1023040001D9032300E25D4B1B6803F40033002B67
:10231400F0D014E000F0DAFB386108E000F0D6FBFE
:1023240002463B69D31A642B01D90323ECE1534BD6
:102334001B6803F40033002BF0D100E000BF7B687E
:102344001B6803F00203002B63D04C4B5B6803F063
:102354000C03002B0BD0494B5B6803F00C03082BD8
:102364001CD1464B5B6803F48033002B16D1434BDE
:102374001B6803F00203002B05D07B681B69012B4B
:1023840001D00123C0E13D4B1B6823F0F8027B68B8
:102394005B69DB00394913430B603AE07B681B69D6
:1023A400002B20D0364B01221A6000F08FFB3861DD
:1023B40008E000F08BFB02463B69D31A022B01D9DB
:1023C4000323A1E12D4B1B6803F00203002BF0D083
:1023D4002A4B1B6823F0F8027B685B69DB00274902
:1023E40013430B6015E0264B00221A6000F06EFBCD
:1023F400386108E000F06AFB02463B69D31A022BFD
:1024040001D9032380E11D4B1B6803F00203002B59
:10241400F0D17B681B6803F00803002B3AD07B687B
:102424009B69002B19D0174B01221A6000F04EFB58
:10243400386108E000F04AFB02463B69D31A022BDC
:1024440001D9032360E10D4B5B6A03F00203002B07
:10245400F0D0012000F0DAFA1CE00A4B00221A60E6
:1024640000F034FB38610FE000F030FB02463B69BA
:10247400D31A022B08D9032346E100BF00100240FF
:102484000000424280044242924B5B6A03F0020322
:10249400002BE9D17B681B6803F00403002B00F0D8
:1024A400A6800023FB758B4BDB6903F08053002B64
:1024B4000DD1884BDB69874A43F08053D361854B48
:1024C400DB6903F08053BB60BB680123FB75824B5F
:1024D4001B6803F48073002B18D17F4B1B687E4A62
:1024E40043F48073136000F0F1FA386108E000F0FF
:1024F400EDFA02463B69D31A642B01D9032303E1A5
:10250400754B1B6803F48073002BF0D07B68DB6889
:10251400012B06D16F4B1B6A6E4A43F00103136211
:102524002DE07B68DB68002B0CD16A4B1B6A694A7F
:1025340023F001031362674B1B6A664A23F004030A
:1025440013621CE07B68DB68052B0CD1614B1B6AB2
:10255400604A43F0040313625E4B1B6A5D4A43F016
:10256400010313620BE05B4B1B6A5A4A23F001031D
:102574001362584B1B6A574A23F0040313627B68A7
:10258400DB68002B15D000F0A1FA38610AE000F0F6
:102594009DFA02463B69D31A41F28832934201D92B
:1025A4000323B1E04B4B1B6A03F00203002BEED074
:1025B40014E000F08BFA38610AE000F087FA024672
:1025C4003B69D31A41F28832934201D903239BE039
:1025D400404B1B6A03F00203002BEED1FB7D012B61
:1025E40005D13C4BDB693B4A23F08053D3617B68C4
:1025F400DB69002B00F08780364B5B6803F00C032B
:10260400082B61D07B68DB69022B46D1334B002257
:102614001A6000F05BFA386108E000F057FA0246ED
:102624003B69D31A022B01D903236DE0294B1B68A4
:1026340003F00073002BF0D17B681B6AB3F5803F75
:1026440008D1244B5B6823F400327B689B682149E2
:1026540013434B601F4B5B6823F474127B68196A45
:102664007B685B6A0B431B4913434B601B4B012282
:102674001A6000F02BFA386108E000F027FA0246ED
:102684003B69D31A022B01D903233DE0114B1B688C
:1026940003F00073002BF0D035E0104B00221A60D9
:1026A40000F014FA386108E000F010FA02463B69C1
:1026B400D31A022B01D9032326E0064B1B6803F02F
:1026C4000073002BF0D11EE07B68DB69012B07D17E
:1026D400012319E0001002400070004060004242F3
:1026E4000B4B5B68FB60FB6803F480327B681B6AFE
:1026F4009A4206D1FB6803F470127B685B6A9A42C3
:1027040001D0012300E0002318461837BD4680BDE0
:102714000010024080B584B000AF786039607B68F7
:10272400002B01D10123D0E06A4B1B6803F007039F
:102734003A689A4210D9674B1B6823F0070265492F
:102744003B6813430B60634B1B6803F007033A6851
:102754009A4201D00123B8E07B681B6803F00203AE
:10276400002B20D07B681B6803F00403002B05D0EA
:10277400594B5B68584A43F4E06353607B681B68B9
:1027840003F00803002B05D0534B5B68524A43F413
:1027940060535360504B5B6823F0F0027B689B6886
:1027A4004D4913434B607B681B6803F00103002B06
:1027B40040D07B685B68012B07D1474B1B6803F44F
:1027C4000033002B15D101237FE07B685B68022B6B
:1027D40007D1414B1B6803F00073002B09D101237F
:1027E40073E03D4B1B6803F00203002B01D101236E
:1027F4006BE0394B5B6823F003027B685B68364906
:1028040013434B6000F062F9F8600AE000F05EF9EF
:102814000246FB68D31A41F28832934201D903235A
:1028240053E02D4B5B6803F00C027B685B689B00F4
:102834009A42EBD1274B1B6803F007033A689A428C
:1028440010D2244B1B6823F0070222493B68134330
:102854000B60204B1B6803F007033A689A4201D0CF
:10286400012332E07B681B6803F00403002B08D0CB
:10287400194B5B6823F4E0627B68DB6816491343F9
:102884004B607B681B6803F00803002B09D0124BD4
:102894005B6823F460527B681B69DB000E491343B9
:1028A4004B6000F021F802460B4B5B681B0903F0F8
:1028B4000F030A49CB5C22FA03F3094A1360094B5C
:1028C4001B68184600F0C0F8002318461037BD46B0
:1028D40080BD00BF0020024000100240F03E00080E
:1028E400740000207800002090B48AB000AF2A4B16
:1028F4003C1D0FCB84E80F0040F201233B800023F2
:10290400FB610023BB6100237B6200237B61002306
:102914003B62224B5B68FB61FB6903F00C03042BF5
:1029240002D0082B03D02DE01D4B3B622DE0FB6948
:102934009B0C03F00F0307F12802134413F8243C03
:102944007B61FB6903F48033002B13D0134B5B686A
:102954005B0C03F0010307F12802134413F8283C2D
:10296400BB617B690E4A03FB02F2BB69B2FBF3F362
:102974007B6204E07B690B4A02FB03F37B627B6AA4
:102984003B6202E0064B3B6200BF3B6A18462837B5
:10299400BD4690BC704700BFC83D0008001002400F
:1029A40000127A0000093D0080B400AF024B1B689E
:1029B4001846BD4680BC70477400002080B500AF47
:1029C400FFF7F2FF0246054B5B681B0A03F007039F
:1029D4000349CB5C22FA03F3184680BD0010024081
:1029E400003F000880B500AFFFF7DEFF0246054B4D
:1029F4005B68DB0A03F007030349CB5C22FA03F3A9
:102A0400184680BD00100240003F000880B485B025
:102A140000AF78600A4B1B680A4AA2FB03235B0AD7
:102A24007A6802FB03F3FB6000BFFB685A1EFA607E
:102A3400002BF9D100BF00BF1437BD4680BC7047DE
:102A440074000020D34D621080B582B000AF78606E
:102A5400124B1A68124B1B7819464FF47A73B3FB66
:102A6400F1F3B2FBF3F3184600F066FB0346002BC8
:102A740001D001230EE07B680F2B0AD8002279686D
:102A84004FF0FF3000F02EFB064A7B6813600023F2
:102A940000E0012318460837BD4680BD74000020BD
:102AA4007C0000207800002080B400AF054B1B7828
:102AB4001A46054B1B681344034A136000BFBD4606
:102AC40080BC70477C000020F819002080B400AF5F
:102AD400024B1B681846BD4680BC7047F81900209D
:102AE40080B582B000AF78607B68002B01D10123F0
:102AF4003FE07B6893F83D30DBB2002B06D17B6866
:102B0400002283F83C207868FFF762F97B6824226E
:102B140083F83D207B681B68DA687B681B6822F4B5
:102B24000052DA60786800F0A7F97B681B681A69BC
:102B34007B681B6822F490421A617B681B685A699F
:102B44007B681B6822F02A025A617B681B68DA687A
:102B54007B681B6842F40052DA607B6800221A64C6
:102B64007B68202283F83D207B68202283F83E2066
:102B7400002318460837BD4680BD80B58AB002AF31
:102B8400F860B9603B601346FB8000237B61FB68FF
:102B940093F83D30DBB2202B7CD1BB68002B02D0F4
:102BA400FB88002B01D1012375E0FB6893F83C30CE
:102BB400012B01D102236EE0FB68012283F83C2043
:102BC400FB6800221A64FB68212283F83D20FFF78A
:102BD4007DFF7861FB68FA889A84FB68FA88DA8456
:102BE400FB689B68B3F5805F08D1FB681B69002B09
:102BF40004D10023FB61BB68BB6103E0BB68FB61DC
:102C04000023BB61FB68002283F83C202AE03B6878
:102C140000937B6900228021F86800F0E2F8034603
:102C2400002B01D0032336E0FB69002B0BD1BB69D9
:102C34001B881A46FB681B68C2F308025A60BB690A
:102C44000233BB6107E0FB691A78FB681B685A60B2
:102C5400FB690133FB61FB68DB8C9BB2013B9AB2DD
:102C6400FB68DA84FB68DB8C9BB2002BCFD13B681A
:102C740000937B6900224021F86800F0B2F8034613
:102C8400002B01D0032306E0FB68202283F83D20BB
:102C9400002300E0022318462037BD4680BD80B5DE
:102CA4008AB002AFF860B9603B601346FB80002332
:102CB4007B61FB6893F83E30DBB2202B40F08C80C4
:102CC400BB68002B02D0FB88002B01D1012384E0D8
:102CD400FB6893F83C30012B01D102237DE0FB68B3
:102CE400012283F83C20FB6800221A64FB6822223C
:102CF40083F83E20FB6800221A63FFF7E7FE786141
:102D0400FB68FA889A85FB68FA88DA85FB689B6811
:102D1400B3F5805F08D1FB681B69002B04D1002345
:102D2400FB61BB68BB6103E0BB68FB610023BB6163
:102D3400FB68002283F83C2043E03B6800937B69F6
:102D440000222021F86800F04CF80346002B01D043
:102D5400032342E0FB69002B0CD1FB681B685B6812
:102D64009BB2C3F308039AB2BB691A80BB690233EE
:102D7400BB611FE0FB689B68B3F5805F07D0FB680D
:102D84009B68002B0AD1FB681B69002B06D1FB68EA
:102D94001B685B68DAB2FB691A7008E0FB681B68A1
:102DA4005B68DBB203F07F03DAB2FB691A70FB697C
:102DB4000133FB61FB68DB8D9BB2013B9AB2FB687C
:102DC400DA85FB68DB8D9BB2002BB6D1FB68202231
:102DD40083F83E20002300E0022318462037BD4636
:102DE40080BD80B584B000AFF860B9603B60134625
:102DF400FB712CE0BB69B3F1FF3F28D0BB69002B0A
:102E040007D0FFF763FE02463B68D31ABA699A42B9
:102E14001DD2FB681B68DA68FB681B6822F4D07259
:102E2400DA60FB681B685A69FB681B6822F00102C0
:102E34005A61FB68202283F83D20FB68202283F836
:102E44003E20FB68002283F83C2003230FE0FB684C
:102E54001B681A68BB681340BA689A420CBF012306
:102E64000023DBB21A46FB799A42C3D000231846EA
:102E74001037BD4680BD000080B584B000AF7860D7
:102E84007B681B681B6923F440517B68DA687B68A4
:102E94001B680A431A617B689A687B681B691A433A
:102EA4007B685B691343BB607B681B68DB6823F446
:102EB400B05323F00C037A681268B9680B43D360EB
:102EC4007B681B685B6923F440717B689A697B6843
:102ED4001B680A435A617B681B682C4A934203D1DE
:102EE400FFF780FDF86002E0FFF768FDF860FA681C
:102EF40013469B0013449A001A447B685B689B004A
:102F0400B2FBF3F3224AA2FB03235B091901FA681B
:102F140013469B0013449A001A447B685B689B0029
:102F2400B2FBF3F21A4BA3FB02035B09642000FB20
:102F340003F3D31A1B013233154AA2FB03235B09A3
:102F440003F0F0031944FA6813469B0013449A00F3
:102F54001A447B685B689B00B2FBF3F20C4BA3FB47
:102F640002035B09642000FB03F3D31A1B01323311
:102F7400074AA2FB03235B0903F00F027B681B686B
:102F84000A449A6000BF1037BD4680BD0038014036
:102F94001F85EB5180B400AF044BDB681B0A03F0C0
:102FA40007031846BD4680BC704700BF00ED00E033
:102FB40080B483B000AF0346FB7197F90730002B50
:102FC4000BDBFB7903F01F02064997F907305B0915
:102FD400012000FA02F241F8232000BF0C37BD465D
:102FE40080BC704700E100E080B483B000AF0346CA
:102FF4003960FB7197F90730002B0ADB3B68DAB2C2
:103004000C4997F907301201D2B20B4483F800231C
:103014000AE03B68DAB20849FB7903F00F03043B8A
:103024001201D2B20B441A7600BF0C37BD4680BCE5
:10303400704700BF00E100E000ED00E080B489B01B
:1030440000AFF860B9607A60FB6803F00703FB61C6
:10305400FB69C3F10703042B28BF0423BB61FB698D
:103064000433062B02D9FB69033B00E000237B6198
:103074004FF0FF32BB6902FA03F3DA43BB681A402C
:103084007B699A404FF0FF317B6901FA03F3D9431E
:103094007B680B40134318462437BD4680BC7047F9
:1030A40080B582B000AF78607B68013BB3F1807F6C
:1030B40001D301230FE00A4A7B68013B53600F21CF
:1030C4004FF0FF30FFF790FF054B00229A60044B4E
:1030D40007221A60002318460837BD4680BD00BF8A
:1030E40010E000E080B586B000AF0346B9607A60B6
:1030F400FB7300237B61FFF74DFF78617A68B96841
:103104007869FFF79BFF024697F90F30114618467E
:10311400FFF76AFF00BF1837BD4680BD80B582B097
:1031240000AF0346FB7197F907301846FFF740FFDD
:1031340000BF0837BD4680BD80B582B000AF78605F
:103144007868FFF7ADFF034618460837BD4680BDD3
:10315400002103E00A4B5B584350043109480A4BF1
:1031640042189A42F6D3094A02E0002342F8043B8B
:10317400074B9A42F9D3FEF793FEFDF713F9704714
:10318400083F00080000002020010020200100204A
:1031940078220020EFF30580FDF752B980B483B0A4
:1031A40000AF03463960FB7197F90730002B0ADB47
:1031B4003B68DAB20C4997F907301201D2B20B44DA
:1031C40083F800230AE03B68DAB20849FB7903F08C
:1031D4000F03043B1201D2B20B441A7600BF0C3722
:1031E400BD4680BC704700BF00E100E000ED00E098
:1031F40080B500AF00F076F80A2000F0B5F800BF03
:1032040080BD80B500AFFFF74FFCFDF701F900BFAB
:1032140080BD000080B582B000AFFDF761F90B4BB3
:103224001B680A4A43F00103136000237B607B6838
:1032340083F3098800BF064BFF221A70054B4FF039
:1032440080521A6000BF0837BD4680BD10E000E020
:1032540022ED00E004ED00E080B489B000AFF86036
:10326400B9607A603B607B6804337B607B68BB61D8
:10327400BB6923F00703BB61BB69403BBB61BB690E
:103284007B610023FB6108E0FB699B007A691344BE
:10329400134A1A60FB690133FB61FB690F2BF3D9F5
:1032A400BA687B691A627B6900225A627B690022D0
:1032B4009A627B690022DA627B6900221A633A68A7
:1032C4007B695A63FA687B699A637B694FF0807201
:1032D400DA63BB6918462437BD4680BC704700BF1B
:1032E400EFBEADDE80B590B000AF07F12C03002235
:1032F4001A605A609A60DA601A613B1D2822002124
:10330400184600F049F901237B604FF48033BB6019
:103314000023FB6002233B624FF480337B624FF453
:10332400E013BB623B1D1846FEF772FF0346002BF9
:1033340000D0FEE70F23FB6202233B6300237B6381
:103344000023FB634FF48063BB6307F12C0302216A
:103354001846FFF7DFF90346002B00D0FEE700BF55
:103364004037BD4680BD000080B582B000AF7860B4
:103374000D4B1B687A6802FB03F30C4A0C49A1FB52
:1033840003139B0953600F214FF0FF30FFF706FF33
:10339400064B00229A60054B6FF001021A6000BFD1
:1033A4000837BD4680BD00BF7400002010E000E077
:1033B400D34D621080B588B000AF274B9B69264A75
:1033C40043F008039361244B9B6903F00803FB60FB
:1033D400FB68214B9B69204A43F0080393611E4B11
:1033E4009B6903F00803BB60BB681B4B9B691A4ACB
:1033F40043F008039361184B9B6903F008037B6057
:103404007B6820233B6101237B610123BB61032390
:10341400FB6107F1100319461048FEF775FD0123FF
:103424003B6107F1100319460C48FEF76DFD0223BA
:103434003B6107F1100319460848FEF765FD074B89
:1034440020221A61054B01221A61044B02221A61DF
:1034540000BF2037BD4680BD00100240000C014073
:1034640080B400AF034B4FF400121A6100BFBD4695
:1034740080BC7047000C014080B400AF034B202295
:103484001A6100BFBD4680BC704700BF000C0140FC
:1034940080B586B000AF124B9B69114A43F0040318
:1034A40093610F4B9B6903F004037B607B680123EA
:1034B400BB600C4BFB6000233B6107F1080319461A
:1034C4000948FEF721FD002200210620FFF70AFE2D
:1034D4000620FFF723FE00BF1837BD4680BD00BF9E
:1034E40000100240000011100008014080B582B0B5
:1034F40000AF7860074B1B680133064A1360FFF77F
:10350400AFFF6420FDF736F9FFF7B6FF6420FDF73F
:1035140031F9EFE77422002080B582B000AF786003
:103524006420FDF727F9FBE780B584B004AFFFF70B
:1035340041FFFFF7ADFF4FF4806302930E4B0193FD
:103544000023009300230D4A0D490E48FCF7ACFFFD
:103554004FF4806302930C4B0193002300930023E8
:103564000A4A0B490B48FCF79FFFFFF753FE002361
:103574001846BD4680BD00BF741A0020F13400080F
:10358400FC190020D83D0008741E00201D350008D9
:10359400381A0020E43D000803008218934200D149
:0835A400704719700133F9E7CB
:1035AC0069646C655F7461736B00000075617274A3
:1035BC00310000005B25645D2000000075736572AE
:1035CC0020646F206E6F7420737461727420746841
:1035DC0065207363686564756C65722C206D616918
:1035EC006E28292072657475726E65640D0A000070
:1035FC005B25645D2000000076616C002F686F6DA8
:10360C00652F6D696F2F4465736B746F702F6469D0
:10361C0072732F53696D706C6552544F532F776FC3
:10362C00726B73706163652F6361744F532F737288
:10363C00632F636F6D706F6E656E742F6D656D5F4C
:10364C0072772F6D656D5F72772E630025733A2547
:10365C006420257320617373657274206661696CD4
:10366C00656420210D0A0000617267005B67657458
:10367C005F7265675D2075736167653A6765747223
:10368C006567205B4845585F414444525D0D0A0014
:10369C005B6765745F7265675D206661696C207439
:1036AC006F20726561642021210D0A002A28257380
:1036BC00293D25730D0A000067657472656700006B
:1036CC006765745F34627974655F726567000000CA
:1036DC005B7365745F7265675D2075736167653ACE
:1036EC00736574726567205B4845585F414444526A
:1036FC005D205B4845585F56414C5D0D0A0000004B
:10370C005B7365745F7265675D206661696C2074BC
:10371C006F2077726974652021210D0A000000006A
:10372C005B7365745F7265675D207772697474652D
:10373C006E0D0A0073657472656700007365745FC3
:10374C0034627974655F7265670000005B63617455
:10375C005F737472636D705D206174206C6561734E
:10376C0074206F6E6520617267206973204E554C12
:10377C004C210D0A000000005B25645D2000000058
:10378C004E554C4C20213D206465737400000000A4
:10379C002F686F6D652F6D696F2F4465736B746F38
:1037AC00702F646972732F53696D706C6552544F2E
:1037BC00532F776F726B73706163652F6361744FF6
:1037CC00532F7372632F636F6D706F6E656E742FF2
:1037DC006361745F737472696E672F6361745F7376
:1037EC007472696E672E630025733A256420257305
:1037FC0020617373657274206661696C6564202145
:10380C000D0A00004E554C4C20213D207372630074
:10381C006465737400000000737263005B63617411
:10382C005F737464696F5D206E6F206D6174636883
:10383C00206572726F7220747970652021210D0AD7
:10384C00000000005B6361745F737464696F3A63BA
:10385C0061745F7072696E745D74797065206E6FDF
:10386C007420737570706F72742021210D0A000022
:10387C005B25645D200000004E554C4C20213D2002
:10388C005F737464696F5F64657600002F686F6D99
:10389C00652F6D696F2F4465736B746F702F64693E
:1038AC0072732F53696D706C6552544F532F776F31
:1038BC00726B73706163652F6361744F532F7372F6
:1038CC00632F636F6D706F6E656E742F6361745FC1
:1038DC00737464696F2F6361745F737464696F2EA2
:1038EC006300000025733A256420257320617373EF
:1038FC00657274206661696C656420210D0A000094
:10390C00082008006261636B7370616365000000DE
:10391C000D0A00006361743E00000000656E746562
:10392C00720000002532642025730D0A000000008F
:10393C0068656C70000000007072696E74206865B8
:10394C006C70206D736700005B25645D20000000C7
:10395C00617267002F686F6D652F6D696F2F4465FD
:10396C00736B746F702F646972732F53696D706C05
:10397C006552544F532F776F726B73706163652F61
:10398C006361744F532F7372632F636F6D706F6E1F
:10399C00656E742F6361745F7368656C6C2F636103
:1039AC00745F7368656C6C5F636D64732E63000089
:1039BC0025733A2564202573206173736572742016
:1039CC006661696C656420210D0A00005B646F5FA1
:1039DC00746573745F617267735D206E6F206172C2
:1039EC00670D0A006172675B25645D3A2025730DD3
:1039FC000A000000746573745F61726773000000E5
:103A0C007465737420617267730000001B5B324A2B
:103A1C001B5B303B30480000636C6561720000003A
:103A2C00636C6561722073637265656E00000000E3
:103A3C005B25645D200000005B6361745F736865E7
:103A4C006C6C5F706F72743A25645D206361745F97
:103A5C007368656C6C5F696E6974206661696C2152
:103A6C000D0A00007368656C6C5F7461736B000009
:103A7C005B6361745F7368656C6C5F706F72745DAF
:103A8C00206361745F7368656C6C20696E69742067
:103A9C0073756363657373200D0A00005B25645DA9
:103AAC00200000007368656C6C5F696E73740000B5
:103ABC002F686F6D652F6D696F2F4465736B746F15
:103ACC00702F646972732F53696D706C6552544F0B
:103ADC00532F776F726B73706163652F6361744FD3
:103AEC00532F7372632F636F6D706F6E656E742FCF
:103AFC006361745F7368656C6C2F6361745F73686A
:103B0C00656C6C2E6300000025733A2564202573C8
:103B1C0020617373657274206661696C6564202121
:103B2C000D0A00005F5F5F5F5F5F5F5F5F5F5F5FFE
:103B3C005F5F5F5F5F5F5F5F5F5F5F5F5F5F5F5F89
:103B4C005F5F5F5F5F5F5F5F5F0D0A20202020205B
:103B5C005F5F5F2020202020205F2020205F5F5FA0
:103B6C00205F20202020202020205F205F2020208C
:103B7C000D0A202020202F205F5F7C5F5F205F7C60
:103B8C00207C5F2F205F5F7C207C5F20205F5F5F4D
:103B9C007C207C207C20200D0A2020207C20285F8B
:103BAC005F2F205F60207C20205F5C5F5F205C20AB
:103BBC0027205C2F202D5F29207C207C0D0A2020C3
:103BCC0020205C5F5F5F5C5F5F2C5F7C5C5F5F7C79
:103BDC005F5F5F2F5F7C7C5F5C5F5F5F7C5F7C5FA8
:103BEC007C200D0A205F5F5F5F5F5F5F5F5F5F5FE1
:103BFC005F5F5F5F5F5F5F5F5F5F5F5F5F5F5F5FC9
:103C0C005F5F5F5F5F5F5F5F5F5F0D0A0D0A204361
:103C1C0061745368656C6C2076312E302E312063C4
:103C2C00726561746564206279206D696F200D0A7C
:103C3C002074797065202268656C702220746F2066
:103C4C00676574206D6F726520696E666F0D0A0D65
:103C5C000A0000006361743E00000000646174613E
:103C6C00000000005B6361746F735D206F7665729A
:103C7C00206D617820617267206E756D3A25642025
:103C8C00210D0A005B6361746F735D20636D6420AA
:103C9C002573206E6F7420666F756E6420210D0A7B
:103CAC00000000005B25645D200000003020213DF9
:103CBC00206465762D3E7265665F636F756E740069
:103CCC002F686F6D652F6D696F2F4465736B746F03
:103CDC00702F646972732F53696D706C6552544FF9
:103CEC00532F776F726B73706163652F6361744FC1
:103CFC00532F7372632F636F6D706F6E656E742FBD
:103D0C006361745F6465766963652F6361745F6476
:103D1C0065766963652E630025733A2564202573E7
:103D2C0020617373657274206661696C656420210F
:103D3C000D0A00002D2D3E256420646576696365AF
:103D4C00733A0D0A0000000069643D2532642C2092
:103D5C006E616D653D25732C20747970653D25640D
:103D6C002C2073746174653D25642C206176616C24
:103D7C005F6D6F64653D25642C206F70656E5F6DA3
:103D8C006F64653D25642C207265665F636F756E8C
:103D9C00743D25640D0A00006C6973745F6465766C
:103DAC00696365006C697374206465766963657317
:103DBC0000000000756172743100000002030405FC
:103DCC00060708090A0B0C0D0E0F10107461736BAB
:103DDC00315F7461736B00007461736B325F74617B
:103DEC00736B0000FF0001000200010003000100E2
:103DFC0002000100040001000200010003000100A8
:103E0C000200010005000100020001000300010096
:103E1C000200010004000100020001000300010087
:103E2C000200010006000100020001000300010075
:103E3C000200010004000100020001000300010067
:103E4C000200010005000100020001000300010056
:103E5C000200010004000100020001000300010047
:103E6C000200010007000100020001000300010034
:103E7C000200010004000100020001000300010027
:103E8C000200010005000100020001000300010016
:103E9C000200010004000100020001000300010007
:103EAC0002000100060001000200010003000100F5
:103EBC0002000100040001000200010003000100E7
:103ECC0002000100050001000200010003000100D6
:103EDC0002000100040001000200010003000100C7
:103EEC0002000100000000000000000001020304B9
:0C3EFC0006070809000000000102030492
:103F08002838000850380008C03D000803000000A9
:103F18000038014000C2010000000000000000005D
:103F2800000000000C00000000000000000000007D
:103F3800B419002008000020000000000000000064
:103F48000000000000000000000000000000000069
:103F58000000000000000000B51C00080000000080
:103F6800000000001B1D00084B1D00087F1D0008F5
:103F78003000002000A24A041000000001000000E8
:103F880000000000C4360008CC3600080D0A0008FE
:103F98000000000000000000403700084837000813
:103FA800C90A0008000000000100000010390008DC
:103FB80000000008B1120008000000000100000025
:103FC800283900080000000DE91200080000000070
:103FD800000000003C390008443900083913000883
:103FE8000000000000000000003A00080C3A000839
:103FF8008D1300080000000000000000243A0008AB
:104008002C3A0008211400080000000000000000FD
:10401800A43D0008B03D0008F91B0008000000009E
:040000050800315569
:00000001FF
